{
  "transactions": [
    {
      "hash": "0x93ba3e6c6d37370d707e914f0c3259a381556e425968924a84973439a1418038",
      "transactionType": "CALL",
      "contractName": null,
      "contractAddress": "0x7728be128b629adb48ccd12c5440acbc05939444",
      "function": "mint(address,uint256)",
      "arguments": [
        "0xC0363Deeb403FDFE63cB15B90261a6a985beCe34",
        "5000000000000000000000000"
      ],
      "transaction": {
        "from": "0xc0363deeb403fdfe63cb15b90261a6a985bece34",
        "to": "0x7728be128b629adb48ccd12c5440acbc05939444",
        "gas": "0x15868",
        "value": "0x0",
        "input": "0x40c10f19000000000000000000000000c0363deeb403fdfe63cb15b90261a6a985bece340000000000000000000000000000000000000000000422ca8b0a00a425000000",
        "nonce": "0x6",
        "chainId": "0x138b"
      },
      "additionalContracts": [],
      "isFixedGasLimit": false
    },
    {
      "hash": "0xe2ca4d549e3718c60572130c5e91cfec34732feaea79aceb4158b5bace8b0444",
      "transactionType": "CALL",
      "contractName": null,
      "contractAddress": "0x7728be128b629adb48ccd12c5440acbc05939444",
      "function": "approve(address,uint256)",
      "arguments": [
        "0x97E5A35FA59b417DA4B38c9beEC8cBd23693e1AA",
        "5000000000000000000000000"
      ],
      "transaction": {
        "from": "0xc0363deeb403fdfe63cb15b90261a6a985bece34",
        "to": "0x7728be128b629adb48ccd12c5440acbc05939444",
        "gas": "0xe54a",
        "value": "0x0",
        "input": "0x095ea7b300000000000000000000000097e5a35fa59b417da4b38c9beec8cbd23693e1aa0000000000000000000000000000000000000000000422ca8b0a00a425000000",
        "nonce": "0x7",
        "chainId": "0x138b"
      },
      "additionalContracts": [],
      "isFixedGasLimit": false
    },
    {
      "hash": "0x443aaecaf079e0f81c075d09d79b0234b72079eadc58d85a2c96aabaaeadac80",
      "transactionType": "CALL",
      "contractName": null,
      "contractAddress": "0x97e5a35fa59b417da4b38c9beec8cbd23693e1aa",
      "function": "deposit(uint256,address)",
      "arguments": [
        "5000000000000000000000000",
        "0x7728be128b629ADB48ccD12c5440acBC05939444"
      ],
      "transaction": {
        "from": "0xc0363deeb403fdfe63cb15b90261a6a985bece34",
        "to": "0x97e5a35fa59b417da4b38c9beec8cbd23693e1aa",
        "gas": "0x24408",
        "value": "0x0",
        "input": "0x6e553f650000000000000000000000000000000000000000000422ca8b0a00a4250000000000000000000000000000007728be128b629adb48ccd12c5440acbc05939444",
        "nonce": "0x8",
        "chainId": "0x138b"
      },
      "additionalContracts": [],
      "isFixedGasLimit": false
    }
  ],
  "receipts": [
    {
      "type": "0x2",
      "status": "0x1",
      "cumulativeGasUsed": "0x1ba6c",
      "logs": [],
      "logsBloom": "0x00000000000000000000000000000000000000000000000000000000000000000000000000000000000000000000000000000000000000000000000000000000000000000000000000000000000000000000000000000000000000000000000000000000000000000000000000000000000000000000000000000000000000000000000000000000000000000000000000000000000000000000000000000000000000000000000000000000000000000000000000000000000000000000000000000000000000000000000000000000000000000000000000000000000000000000000000000000000000000000000000000000000000000000000000000000",
      "transactionHash": "0x93ba3e6c6d37370d707e914f0c3259a381556e425968924a84973439a1418038",
      "transactionIndex": "0x1",
      "blockHash": "0xc33f835243dd8b9187cc212a0b311fc7ac64190cf2efabcea06bfa92dbebc57b",
      "blockNumber": "0x2594a23",
      "gasUsed": "0x1059d",
      "effectiveGasPrice": "0xba43cfaa0",
      "blobGasUsed": "0x9c40",
      "from": "0xc0363deeb403fdfe63cb15b90261a6a985bece34",
      "to": "0x7728be128b629adb48ccd12c5440acbc05939444",
      "contractAddress": null
    },
    {
      "type": "0x2",
      "status": "0x1",
      "cumulativeGasUsed": "0x163b4",
      "logs": [],
      "logsBloom": "0x00000000000000000000000000000000000000000000000000000000000000000000000000000000000000000000000000000000000000000000000000000000000000000000000000000000000000000000000000000000000000000000000000000000000000000000000000000000000000000000000000000000000000000000000000000000000000000000000000000000000000000000000000000000000000000000000000000000000000000000000000000000000000000000000000000000000000000000000000000000000000000000000000000000000000000000000000000000000000000000000000000000000000000000000000000000",
      "transactionHash": "0xe2ca4d549e3718c60572130c5e91cfec34732feaea79aceb4158b5bace8b0444",
      "transactionIndex": "0x1",
      "blockHash": "0x49606396abb2667ea278e8970170efb9f28827b9571bdc47ce79b4a714d60e16",
      "blockNumber": "0x2594a26",
      "gasUsed": "0xaee5",
      "effectiveGasPrice": "0xba43cfaa0",
      "blobGasUsed": "0x9c40",
      "from": "0xc0363deeb403fdfe63cb15b90261a6a985bece34",
      "to": "0x7728be128b629adb48ccd12c5440acbc05939444",
      "contractAddress": null
    },
    {
      "type": "0x2",
      "status": "0x1",
      "cumulativeGasUsed": "0x2416a",
      "logs": [
        {
          "address": "0x97e5a35fa59b417da4b38c9beec8cbd23693e1aa",
          "topics": [
            "0x8752a472e571a816aea92eec8dae9baf628e840f4929fbcc2d155e6233ff68a7",
            "0x000000000000000000000000c0363deeb403fdfe63cb15b90261a6a985bece34",
            "0x0000000000000000000000007728be128b629adb48ccd12c5440acbc05939444"
          ],
          "data": "0x0000000000000000000000000000000000000000000422ca8b0a00a425000000",
          "blockHash": "0x6799b3af2d3a961216684ffa8a1ee08bd79152399d2f947dcfddc79f47bea630",
          "blockNumber": "0x2594a2a",
          "blockTimestamp": "0x6a1e1735",
          "transactionHash": "0x443aaecaf079e0f81c075d09d79b0234b72079eadc58d85a2c96aabaaeadac80",
          "transactionIndex": "0x1",
          "logIndex": "0x0",
          "removed": false
        }
      ],
      "logsBloom": "0x00000000000000000000000040000000000000000000000000000000000000000000000000000000000000000004000000000000000002000000000000000000000000000000000010000000000000000000000000000000000000000000000000000000000000040000000000000000000000001400000000000008000000000000010000000000000000000000000000000000000000000000000000000002000000000000000000000000000000000000000000080000000000000000000000000000000000000000000000000000000000000000000000000000000000000000000000000000000000000000000000000000000000800000000000000000",
      "transactionHash": "0x443aaecaf079e0f81c075d09d79b0234b72079eadc58d85a2c96aabaaeadac80",
      "transactionIndex": "0x1",
      "blockHash": "0x6799b3af2d3a961216684ffa8a1ee08bd79152399d2f947dcfddc79f47bea630",
      "blockNumber": "0x2594a2a",
      "gasUsed": "0x18c9b",
      "effectiveGasPrice": "0xba43cfaa0",
      "blobGasUsed": "0x9c40",
      "from": "0xc0363deeb403fdfe63cb15b90261a6a985bece34",
      "to": "0x97e5a35fa59b417da4b38c9beec8cbd23693e1aa",
      "contractAddress": null
    }
  ],
  "libraries": [],
  "pending": [],
  "returns": {},
  "timestamp": 1780356914923,
  "chain": 5003,
  "commit": "978ca49"
}